:020000040800F2
:10000000000002204D090008490900089148000835
:1000100049090008490900084909000800000000D2
:100020000000000000000000000000004909000876
:1000300049090008000000004909000815480008A7
:100040004909000849090008490900084909000848
:100050004909000849090008490900084909000838
:100060004909000849090008490900088D340008B9
:100070009934000849090008A5340008B134000883
:10008000C5440008A12900084909000849090008D9
:1000900049090008490900084909000849090008F8
:1000A00049090008490900084909000849090008E8
:1000B000B9EC0008C5EC0008D1EC0008D52900080F
:1000C00049090008E12900084909000841E600083B
:1000D00049090008993E0008453F0008F53F00081F
:1000E0004909000849090008000000004909000802
:1000F0004909000849090008490900084909000898
:100100004909000849090008DDEC00084909000810
:10011000A5400008554100084909000849090008A0
:1001200049090008490900084DE6000881E6000871
:100130004909000849090008490900084909000857
:1001400000000000000000000000000000000000AF
:100150004909000849090008490900080542000842
:10016000ED29000849090008254800084948000809
:10017000490900086D4800084909000849090008B4
:100180004909000849090008B5420008654300080C
:1001900049090008490900084909000849090008F7
:1001A00049090008490900084909000849090008E7
:1001B000AD3100084909000849090008490900084B
:1001C00049090008490900084909000849090008C7
:1001D00049090008490900084909000849090008B7
:1001E00049090008490900084909000849090008A7
:1001F0004909000849090008490900084909000897
:100200004909000849090008490900084909000886
:100210004909000849090008490900084909000876
:1002200049090008490900084909000800000000C0
:1002300049090008490900080000000049090008B0
:100240004909000849090008490900084909000846
:100250004909000849090008490900084909000836
:100260004909000849090008490900084909000826
:100270004909000849090008154400080000000069
:100280004909000849090008490900080000000060
:0802900000000000490900080C
:1002980010B5054C237833B9044B13B10448AFF3B8
:1002A80000800123237010BDE80200240000000034
:1002B800E020010808B5034B1BB103490348AFF31D
:1002C800008008BD00000000EC020024E0200108C6
:1002D80081F0004102E000BF83F0004330B54FEAEF
:1002E80041044FEA430594EA050F08BF90EA020F5C
:1002F8001FBF54EA000C55EA020C7FEA645C7FEAEF
:10030800655C00F0E2804FEA5454D4EB5555B8BF11
:100318006D420CDD2C4480EA020281EA030382EA82
:10032800000083EA010180EA020281EA0303362D14
:1003380088BF30BD11F0004F4FEA01314FF4801CE7
:100348004CEA113102D0404261EB410113F0004FF9
:100358004FEA03334CEA133302D0524263EB4303B0
:1003680094EA050F00F0A780A4F10104D5F1200E4E
:100378000DDB02FA0EFC22FA05F2801841F10001A9
:1003880003FA0EF2801843FA05F359410EE0A5F17D
:1003980020050EF1200E012A03FA0EFC28BF4CF0AE
:1003A800020C43FA05F3C01851EBE37101F0004564
:1003B80007D54FF0000EDCF1000C7EEB00006EEB71
:1003C8000101B1F5801F1BD3B1F5001F0CD34908FB
:1003D8005FEA30004FEA3C0C04F101044FEA445252
:1003E80012F5800F80F09A80BCF1004F08BF5FEAD9
:1003F800500C50F1000041EB045141EA050130BDB9
:100408005FEA4C0C404141EB0101013C28BFB1F5CA
:10041800801FE9D291F0000F04BF01460020B1FA15
:1004280081F308BF2033A3F10B03B3F120020CDAE8
:100438000C3208DD02F1140CC2F10C0201FA0CF0C6
:1004480021FA02F10CE002F11402D8BFC2F1200C2B
:1004580001FA02F120FA0CFCDCBF41EA0C019040E1
:10046800E41AA2BF01EB0451294330BD6FEA04042A
:100478001F3C1CDA0C340EDC04F11404C4F1200215
:1004880020FA04F001FA02F340EA030021FA04F327
:1004980045EA030130BDC4F10C04C4F1200220FA7E
:1004A80002F001FA04F340EA0300294630BD21FABC
:1004B80004F0294630BD94F0000F83F4801306BF82
:1004C80081F480110134013D4EE77FEA645C18BF76
:1004D8007FEA655C29D094EA050F08BF90EA020F0D
:1004E80005D054EA000C04BF1946104630BD91EA05
:1004F800030F1EBF0021002030BD5FEA545C05D108
:100508004000494128BF41F0004130BD14F5800446
:100518003CBF01F5801130BD01F0004545F0FE41BA
:1005280041F470014FF0000030BD7FEA645C1ABFEF
:10053800194610467FEA655C1CBF0B46024650EA26
:10054800013406BF52EA033591EA030F41F4002152
:1005580030BD00BF90F0000F04BF0021704730B5D8
:100568004FF4806404F132044FF000054FF00001AD
:1005780050E700BF90F0000F04BF0021704730B56E
:100588004FF4806404F1320410F0004548BF404243
:100598004FF000013EE700BF42004FEAE2014FEA98
:1005A80031014FEA02701FBF12F07F4393F07F4F73
:1005B80081F06051704732F07F4208BF704793F076
:1005C8007F4F04BF41F40021704730B54FF4607489
:1005D80001F0004521F000411CE700BF50EA01028C
:1005E80008BF704730B54FF000050AE050EA010235
:1005F80008BF704730B511F0004502D5404261EBA5
:1006080041014FF4806404F132045FEA915C3FF4E5
:10061800D8AE4FF003025FEADC0C18BF03325FEA82
:10062800DC0C18BF033202EBDC02C2F1200300FA33
:1006380003FC20FA02F001FA03FE40EA0E0021FA58
:1006480002F11444BDE600BF53B94AB9002908BFF6
:1006580000281CBF4FF0FF314FF0FF3000F06EB99B
:10066800ADF1080C6DE904CE00F006F8DDF804E001
:10067800DDE9022304B070472DE9F047089D0446E0
:100688008C46002B40F083808A42174647D9B2FA3D
:1006980082F242B1C2F1200024FA00F09140974062
:1006A80040EA010C94404FEA1748230CBCFBF8F6CB
:1006B8001FFA87FE08FB16C143EA014306FB0EF149
:1006C800994209D9FB1806F1FF3080F01981994247
:1006D80040F21681023E3B445B1AA4B2B3FBF8F029
:1006E80008FB103344EA034400FB0EFEA64509D973
:1006F8003C1900F1FF3380F00581A64540F20281E4
:1007080002383C4440EA0640A4EB0E0400261DB122
:10071800D4400023C5E900433146BDE8F08702B95B
:10072800FFDEB2FA82F2002A50D1CB1B4FEA174EF5
:100738001FFA87F80126B3FBFEFC210C0EFB1C33C5
:1007480041EA034108FB0CF38B4207D979180CF1F5
:10075800FF3002D28B4200F2E9808446C91AA3B264
:10076800B1FBFEF00EFB101143EA014408FB00F850
:10077800A04507D93C1900F1FF3302D2A04500F289
:10078800D9801846A4EB080440EA0C40BFE78B4226
:1007980009D9002D00F0B1800026C5E900013046D6
:1007A8003146BDE8F087B3FA83F6002E4AD18B4272
:1007B80002D3824200F2B880841A61EB030101205F
:1007C8008C46002DA8D0C5E9004CA5E7C2F120034E
:1007D80020FA03F6974001FA02F04FEA174ED94083
:1007E8003043030CB1FBFEF61FFA87F80EFB161117
:1007F80043EA014306FB08F1994204FA02F409D9D5
:10080800FB1806F1FF3C80F08D80994240F28A8007
:10081800023E3B445B1A81B2B3FBFEF00EFB103381
:1008280041EA034100FB08F38B4207D9791800F12C
:10083800FF3C73D28B4271D902383944CB1A40EA53
:10084800064678E7C6F1200C03FA06F422FA0CF300
:100858001C4320FA0CF701FA06F34FEA144E21FA6A
:100868000CF11F433B0CB1FBFEF91FFA84F80EFB99
:10087800191143EA014109FB08FA8A4502FA06F20E
:1008880000FA06F308D9611809F1FF3048D28A4501
:1008980046D9A9F102092144A1EB0A01BFB2B1FB73
:1008A800FEF00EFB101147EA014700FB08F8B845B7
:1008B80007D9E71900F1FF312ED2B8452CD90238F3
:1008C800274440EA0940A7EB0807A0FB02894F45E7
:1008D800C64649461AD317D05DB1B3EB0E0267EB93
:1008E800010707FA0CFCF2404CEA0202F740C5E99E
:1008F800002700263146BDE8F0872E4628460BE73C
:100908000646E9E61846FDE64345E5D2B8EB020E91
:1009180069EB04010138DFE70846D2E760468DE756
:100928008146B9E7664675E730464AE7ACF1020CFE
:10093800394413E702383C4424E700BF704700BF3E
:10094800FEE700BF0D4B0E4A934206D00D4951F801
:10095800040B43F8040B9342F9D10B4B0B4A934217
:1009680004D0002143F8041B9342FBD104F0C8F9DA
:1009780011F010F800F018F9FEE700BF000000249D
:10098800E802002410210108E802002478E3062484
:10099800704700BF704700BF704700BF704700BF77
:1009A8002DE9F04300232DED028B87B0D1E90067D4
:1009B800039304930593002A58D02F4D06EB820821
:1009C8000DF114092D4C9FED2E8A04E0B03438EE59
:1009D800008AAC422AD094F8AC309FED290A002B4B
:1009E800F4D004F1740094F8AD100FF0B9FB94F84A
:1009F800A030F0EE408A20460BB984F8AC3010F0F5
:100A080003F804F128000FF0DBFED4ED2A6A9FED0D
:100A18001D7AB03414ED160AC6EE877AAC4267EE3A
:100A2800807A27EEA80A38EE008AD4D1B6EE007A8A
:100A3800DFED157A03AA04AB144828EE078A11469D
:100A4800CDF8009068EE277ACDED037A0FF01CFD03
:100A5800DDED047A77EE887AE6EC017A4645DDED3D
:100A6800057A37EE888AA7EC018AABD107B0BDECCE
:100A7800028BBDE8F08300BFC013002440030024AC
:100A8800000000000000FE426666E63EC013002437
:100A980084B038B504AC84E80F009DF810309DF898
:100AA80018203BB3012B21D19DF8193007EE103ADD
:100AB800F8EEC77AF5EE407AF1EE10FA35D107EE86
:100AC800902A354BF8EE677A03F5845193F8AC20F9
:100AD8004AB193ED297A0022F4EE477AF1EE10FA42
:100AE80008BF83F8AD20B0338B42EFD1BDE8384062
:100AF80004B0704707EE902A274BF8EE677A03F5A3
:100B0800845193F8AC204AB193ED297A0022F4EE8F
:100B1800477AF1EE10FA08BF83F8AD20B033994256
:100B2800EFD1BDE8384004B070471B4800230446A5
:100B380003E00133B034182BD8D094F8AC10002956
:100B4800F7D107EE902AB025DFED146AB8EE477AA0
:100B5800F8EE677A05FB03F5F2EE080A2844B0EED2
:100B6800000A77EEE66A80ED2A7AC0ED297AC6EEA9
:100B7800A00A10F0FDFADFED0A7A204620EE270AD7
:100B880084ED020A10F022F9064B40F2011284EDBE
:100B9800060A2B449A80A9E74003002400008A42F1
:100BA8000000DC43E80300242DE9F04FB648022595
:100BB800DFF824832DED028BADF50F7D00F0C8FA28
:100BC8000021B1480C4600F035FBAF4800F0C6FAEA
:100BD80049F2AC02AD4849F2A803B0EE408A6AA9CE
:100BE80048F8020000F57F0047F6122248F8034053
:100BF80000F57F4001236E956A90A54DA5486B943A
:100C08006D946C936F93709203F05EFC49F29803B5
:100C18000A2249F29C01B0EE480A284688F80440A6
:100C280048F8014088F8082048F803400FF070FBA6
:100C3800F7EE007A984C994A994B04F58459C7EE17
:100C4800888A2A606B60002200239FED960A4FF085
:100C58007C5784F88420A4F1280044F8143C04F15B
:100C68004C0504ED078A012644ED068A04ED080ABE
:100C780044F8247C10F0AAF8F0EE407A4FF07D5248
:100C8800052304F8036CB0EE480A44F8242C3146D6
:100C980044ED047A284604F8283C04F8046C0FF064
:100CA80067F9E764314628469FED7F0A0FF0D0F9CF
:100CB80028469FED7E0A02210FF0CAF90421284632
:100CC8009FED7B0A0FF0C4F92046B0EE480A0FF0FA
:100CD80051FD20469FED770A0FF0D2FD20469FED8B
:100CE800760A0FF031FE2046B0349FED740A0FF0FB
:100CF80071FE4C45A7D1DFF8E4A122AE6248AAF103
:100D080008046F4900F026FA0AF1140B04F11800E0
:100D1800AAF1040503F05EFC03F024FE07465D48D3
:100D280003F08CFC00B35B48CAF8007003F072FC57
:100D380098F80430032BF2D8DFE803F074D24002AD
:100D4800F72800F02F8198F9922098F89230002A1D
:100D5800E5DB08EB0302013390744E4888F89230C3
:100D680003F06CFC0028DED14A4803F047FC034638
:100D7800002800F00E812B6822689B1A13F0FF0FE1
:100D8800CAD02B6822689B1A13F0FF0FF9D0276886
:100D98009022304607EBC701013708EB0111FFB27B
:100DA800983110F01BFE26A980226846276010F0B3
:100DB80015FE96E80F00FFF76BFEDCE79BF80030A6
:100DC80003402BD13F4A4049127809781040012945
:100DD80088F8110002D1002800F00C8190223B49CC
:100DE80046A810F0FBFD23682A68013B9B1A13F004
:100DF800FF0FF8D0902246A96AA810F0EFFDD5F8A9
:100E0800009090226AA909EBC90008EB00109830FD
:100E180010F0E4FD09F10103DBB22B60002388F830
:100E280004307CE79BF80030184200F0A580284B7E
:100E3800284A1B7812780340024019099F2B4FEA71
:100E4800231CC8F80C2088F808103FF668AF012367
:100E58001D4ABCF1070F117088F804307FF45FAFAA
:100E6800002210F0080CC8F80C2040F0DA8000F0DE
:100E7800070388F89330002B40F0C180032288F8DC
:100E8800923088F804204AE7040300240107010689
:100E9800C0130024B4AF0624680300243333733F1F
:100EA80000409C450000C842AE47813F0AD7A33B9B
:100EB800CDCC4C3E0080BB459A99193FCDCC4C3FD8
:100EC800A9090008BAAF0624A8AF06240C1F0624F7
:100ED800B9AF0624BCAF0624041F0624A4AF062419
:100EE8009BF80030184299D15B4B1A78123B1B785B
:100EF80000EA02091A1F209388F81090012A05D9E0
:100F080098F8932002F0FD02012A6FD14FF0000CEF
:100F18009022524946A888F804C010F05FFD236863
:100F28002A68013B9B1A13F0FF0FF8D0902246A9BC
:100F38006AA810F053FD2B6890226AA903EBC3003E
:100F4800219308EB0010983010F048FD219B5A1CA3
:100F5800D2B22A60209B032B7FF4E1AEB9F1770F60
:100F68007FF6DDAEA9F17803092288F895303C4B6D
:100F780088F808201A70D2E6374B02221B7888F8C6
:100F880004201840364B1B7888F8100088F8083081
:100F9800C5E6344888F8043003F034FB314803F0E0
:100FA80019FBE8E6002390222C4946A888F804306B
:100FB80010F014FD23682A68013B9B1A13F0FF0FF9
:100FC800F8D0902246A96AA810F008FDD5F800903C
:100FD80090226AA909EBC90008EB0010983010F0BC
:100FE800FDFC09F10103DBB22B6098E6022288F8C8
:100FF8000420AFE71A4A88F808301370EEE6430772
:101008007FF58DAE9022154946A888F804C010F0E7
:10101800E5FC23682A68013B9B1A13F0FF0FF8D000
:10102800CFE7114B4FF0080C88F8042090221B786A
:101038000A49034046A888F808C088F89430084B45
:1010480083F800C010F0CAFC23682A68013B9B1A89
:1010580013F0FF0FF8D0B4E7BAAF06240C1F06242C
:10106800A8AF0624B4AF0624BEAF0624F8B52C48B2
:1010780000242C4A49F2AC052B4949F2A807046020
:10108800446104620FF0AEFE264A284928480FF052
:10109800A9FE284B284849F2AE021E88998849F2D1
:1010A800B003465349F2B405815249F2B802C4501C
:1010B8004FF60F0149F2BA030460C45107241F4ECA
:1010C8008152C454174A1E4946510FF08BFE1D4BDE
:1010D80003F5845400221C490020B03343F83C2C0B
:1010E80043F8341C43F82C1C43F8281C43F8241CF0
:1010F80043F8382C43F8302C43F8202C43F81C2CA8
:1011080043F8182C03F8100C03F80F0CA342E1D194
:10111800044A0E490B48BDE8F8400FF063BE00BF13
:1011280004030024000000249D0900089909000810
:10113800C0130024101A0108041F062480707FF0D1
:10114800A109000840030024000080BFA509000889
:10115800704700BF143001F0ADB900BF143001F082
:10116800A5B900BFF0B5032299B000272D4B012582
:10117800129240F20452064609A81395ADF8402091
:10118800CDE90E73284BCDE91475099301F0BCF92C
:1011980009A801F095FA002835D1044604AF234880
:1011A8001022234B3946CDF8420068468DF820209E
:1011B800059304950094CDE91654CDE9065401F041
:1011C80017FC0823009A01A909A8ADF804508DF866
:1011D800064002950994039300F0DCF800230EA959
:1011E80038464FF07E550493302402F0D9F9032392
:1011F80009A9049A06F114000B95CDE9094301F0F9
:101208001DF919B0F0BD40F60132084B169704AF2E
:10121800ADF8242009981795CDF8423000F07AF8F7
:10122800DCE700BF0402040403030001040604030E
:101238000704010B70B504462DED028B82B000291E
:1012480042D0012140F2011200230091ADF80420A0
:101258008DF806302C4A40F207112C4B02202C4DF9
:10126800012662600622A3604FF48773E560E1847B
:10127800268284F8250084F82920638503F0F6FC8B
:101288000546694604F1300035B38DF8066003F071
:1012980051FC072D33D104F114052046FFF762FFF6
:1012A800284601F003F92846B0EE408A01F0FAF822
:1012B800D0ED007AF8EE677A88EE277A84ED0E7A18
:1012C80002B0BDEC028B70BD40F2011300918DF8A5
:1012D8000610ADF80430BDE703F02CFC211D2046B4
:1012E80001F0D0FD04F1250001F00EF904F1290008
:1012F80001F00AF904F1120000F080F9CBE7211D92
:10130800204601F0BFFDC6E70508050905070506E3
:10131800050A060610B584B003460124ADF804009A
:1013280003A8ADF80C30ADF80E4001F0EDF82146F9
:1013380003A801F0D3F9204603F016FB03A8002107
:1013480001F0CCF9204603F00FFB214603A801F079
:10135800C5F904B010BD00BF30B50D46C2F3002476
:1013680085B0FA2344EA4504017C8DF80D2003AAD0
:10137800009302238DF80C4001F0D0FB18B1012432
:10138800204605B030BD04460A2003F0EDFA204699
:1013980005B030BD70B50446154684B0234607C96C
:1013A80043F8045B83E80700A37983B91A210B4645
:1013B800FA251E26237403AA022320460095ADF8B9
:1013C8000C6001F0ABFB28B1012004B070BD1B21FB
:1013D8000B46EDE70A204FF4B85603F0C5FA00951E
:1013E800022303AA217C2046ADF80C6001F096FB8D
:1013F8000028E9D10A2041F2027603F0B5FA0095F7
:10140800022303AA217C2046ADF80C6001F086FB7C
:101418000028D9D10A20042603F0A6FA0095022351
:1014280003AA217C2046ADF80C6001F077FB002868
:10143800CAD10A20062603F097FA0095022303AAC8
:10144800217C2046ADF80C6001F068FB0028BBD178
:101458000A2041F2082603F087FA0095022303AA1E
:10146800217C2046ADF80C6001F058FB0028ABD178
:101478000A20064603F078FA0095022303AA217C85
:101488002046ADF80C6001F049FB00289CD130469D
:1014980003F06AFA23790C210095002B20460DEB06
:1014A80001028DF80C1014BF622542250223217C0D
:1014B8008DF80D5001F032FB002885D1304603F03D
:1014C80053FA2279D4E902310B43D9B20AB941F06F
:1014D800400163790BB141F02001FA250E268DF801
:1014E8000D100223009503AA2046217C8DF80C607C
:1014F80001F014FB00287FF467AF0A20102603F0E0
:1015080033FA0095022303AA217C2046ADF80C602B
:1015180001F004FB00287FF457AF0A20122603F0DD
:1015280023FA009503AA0223217C2046ADF80C601B
:1015380001F0F4FA00287FF447AF0A2003F014FA08
:10154800204601220921FFF707FF003818BF0120B4
:101558003BE700BF2DE9F043274C87B04FF0010867
:101568004FF0100900250126002702A94FF48052E8
:1015780020460195CDE902894FF002084FF0100985
:10158800CDE9046709F0A8FB642003F013FE02A963
:1015980020464FF48052CDE90467CDE9028904263C
:1015A8004FF003084FF01009002709F095FB02A936
:1015B80020464FF48052CDE90467CDE9028909F04D
:1015C8008BFB40F232234FF0010C042601931027C5
:1015D800019B02A94FF480522046CDE904C3CDE90E
:1015E800026709F079FB204640F6060109F094FBF2
:1015F800284607B0BDE8F083C8AF06242DE9F043BC
:101608001D4B40221D4C20219A6100225C604FF442
:10161800C07489B00826596105464FF480514FF4CB
:101628000060DC6101249A6007271A624FF0040801
:10163800DA620A221E614FF008095862022699628E
:10164800181DDC601023069203226946CDE9006765
:10165800CDE90289CDE9042309F014FB40B92846F5
:10166800FFF778FF003818BF012009B0BDE8F08304
:10167800204609B0BDE8F083C4AF062440410052BB
:10168800614A136803B17047604B012160482DE936
:10169800704311608EB0D3F8D420002403250C26A3
:1016A80042F480524FF683784FF0020908A9C3F834
:1016B800D420D3F8D42002F480520092009AD3F8B0
:1016C800E02042F01002C3F8E020D3F8E02002F056
:1016D80010020192019AD3F8E02042F04002C3F8C8
:1016E800E020D3F8E02002F040020292029AD3F8F8
:1016F800E02042F00802C3F8E020D3F8E02002F02E
:1017080008020392039AD3F8E02042F48072C3F8E7
:10171800E020D3F8E02002F480720492049AD3F80F
:10172800E02042F08002C3F8E020D3F8E02002F085
:1017380080020592059AD3F8E02042F02002C3F80F
:10174800E020D3F8E02002F020020692069AD3F8AF
:10175800E02042F00402C3F8E020D3F8E0300C9611
:1017680003F004030793079BCDE90889CDE90A45EF
:1017780004F0E8FD48F23712022308A925480C9620
:10178800CDE90823CDE90A4504F0DCFD4CF20372EB
:10179800022308A920480C96CDE90823CDE90A457B
:1017A80004F0D0FD40F2FF62022308A91B480C9602
:1017B800CDE90823CDE90A4504F0C4FD4FF60C72C3
:1017C800022308A916480C96CDE90823CDE90A4555
:1017D80004F0B8FD4FF63F02022308A911480C9601
:1017E800CDE90823CDE90A4504F0ACFD2022022307
:1017F80008A90B480C96CDE90A45CDE9082304F061
:10180800A1FD0EB0BDE87083C0AF062400440258A5
:101818000010025800180258000C02580020025804
:10182800001C0258001402582DE9F04FDFF82884F4
:1018380006460D46144608F114002DED028B89B0BA
:1018480000AF01F09DFFD8F814305BB3D8F818301A
:101858004269002B0BBF022304234FF008094FF005
:101868001009FB61D8F804304BB3A100E946012AFE
:1018780001F1070121F00701ADEB010D6846ADEB61
:10188800010D694600F04281022A00F0DB80002A3F
:1018980074D022469847CD462437BD46BDEC028B0E
:1018A800BDE8F08FD8F81830002BF5D002234FF0A0
:1018B80008094269FB61D8F80430002BD5D1D8F863
:1018C8000030BA617B61002BE6D06B46DA4808EE3F
:1018D800103A01F0C7FF8646F869BA69022800F095
:1018E8008E816B46C7F810903969A3EBC4039D46F7
:1018F8006300E946B3FBF0F3A9EBC40CC7F81890F2
:1019080009EB830AB869E546ADEB010D0CEB8301E1
:10191800EB46F9603969C7F810A00AEB830AADEB0A
:10192800010DCBF80000F9680AEB8300E94601EBEA
:101938008301CBF80C00386901EB8303C9F800C0B8
:10194800CBE9010AF868C9E90213C9F80400012AB9
:1019580000F08283022A00F07C82002A00F086814F
:101968006208494658467B69984718EE103A24376A
:101978009D46BD46BDEC028BBDE8F08F002C88D09B
:1019880098ED0B6A864606F1040CDFEDB66A36F967
:1019980022A00EF1080E07EE10AA3CF922A002328E
:1019A80007EE90AAB8EEC77A9442F8EEE77A27EEE7
:1019B800267A67EEA67A27EE067A67EE867A0EED25
:1019C800027A4EED017AE2D8F961224698479B4E99
:1019D800F9690020D8ED046A2B1D9FEDA37A9FEDCD
:1019E800986ADFED985A22E0F4EEC67AF1EE10FA22
:1019F800C0F2EF8447F6FE72D1ED017A45F8202057
:101A080066EEA77AF4EEC77AF1EE10FA40F2F580A6
:101A1800F4EEC67AF1EE10FAC0F2FC8447F6FE72D4
:101A280043F820200230083184427FF634AFD1EDEC
:101A3800007A66EEA77AF4EEC77AF1EE10FAD3D8F8
:101A48003246D9E7002C3FF424AF98ED0B6A86465E
:101A5800002206F1040CDFED7C6A06EB820A0EF127
:101A6800080E9AED007A0CEB820A0232DAED007A5F
:101A7800B8EEC77A9442F8EEE77A27EE267A67EE50
:101A8800A67A27EE067A67EE867A0EED027A4EED92
:101A9800017AE2D8F961224698476C4EF96900202C
:101AA800D8ED046A2B1D9FED707ADFF8B0C19FED69
:101AB800646A20E0F4EEC67AF1EE10FAC0F2A2846D
:101AC8003246D1ED017A45F8202066EEA77AF4EE89
:101AD800C77AF1EE10FA40F28E80F4EEC67AF1EE93
:101AE80010FAC0F28784324643F8202002300831C9
:101AF80084427FF6D0AED1ED007A66EEA77AF4EE96
:101B0800C77AF1EE10FAD5D86246DAE7002C3FF42E
:101B1800C0AE06F1040CFD6198ED0B6A1D468346C4
:101B280063464FF0000ADFED4A6AB4465CF82A20A3
:101B38000BF1080B53F82A600AF1020A82F400023A
:101B480086F4000E5445A2F5000207EE102AAEF501
:101B5800000207EE902AB8EEC77AF8EEE77A27EE89
:101B6800267A67EEA67A27EE067A67EE867A0BED76
:101B7800027A4BED017AD9D82B46FD692246F961E4
:101B88009847344EF9690020D8ED046A2B1D9FED63
:101B9800367ADFF8CCC09FED2A6A1FE0F4EEC67AE9
:101BA800F1EE10FAC0F21E843246D1ED017A45F802
:101BB800202066EEA77AF4EEC77AF1EE10FA18D96B
:101BC800F4EEC67AF1EE10FAC0F2FB83324643F81F
:101BD80020200230083184427FF65DAED1ED007AD4
:101BE80066EEA77AF4EEC77AF1EE10FAD6D8624616
:101BF800DBE76246EBE7624676E7324610E7A3008A
:101C08006008073323F00703ADEB030DEC46ADEB9B
:101C1800030DEA46ADEB090D0CEB8003C7F818C0BD
:101C2800EB46ADEB090D0AEB80003B61E946CBE9D9
:101C380000C3C9E900A08AE614B006240280FFFFA9
:101C480004FF7F3F00FEFF46000000300082FF7F58
:101C58000000003482FF7F00FCAF0624007E008075
:101C68007E0080FF0000003804FF7FBF002C00F0DA
:101C7800EC82F969D8F82030022900F01B8303EBC5
:101C88008E0ADBF80C104FEA8E03C7F800B006F195
:101C9800040C5FED0C5A7B60DBF80830D7F818E0CD
:101CA800FB600AF10403C7F818909B46D7F8109018
:101CB800B9603D613CF9221036F9223006EE901ADF
:101CC8003AF9221006EE103A98ED0B5A07EE101A60
:101CD800F8EEE66AB8EEC66A3BF92210B8EEC77AA3
:101CE800530807EE901A66EEA56A26EE256AF9688B
:101CF80027EE257A09EB8300F8EEE77A0EEB8305E9
:101D080026EE056A01EB830127EE057A023266EEBC
:101D1800856A67EEA57A85ED006A9442C0ED006A8F
:101D280081ED007A98ED0B7AB86867EE877A00EB58
:101D38008303C3ED007ABDD8D7F800B0D7F8189060
:101D48003D69620849467B6958469847D8F8283063
:101D580079680022D8ED046A1944D9F800E0D9F866
:101D680004C02B1D01F104088A461FED417AC7F80B
:101D78001880B14E9FEDB16ADFEDB15AD7F81C80DB
:101D880052E0F4EEC67AF1EE10FAC0F2DC8247F6C1
:101D9800FE7B0CEB010045F822B0D0ED007A66EE30
:101DA800A77AF4EEC77AF1EE10FA4CD9F4EEC67AB7
:101DB800F1EE10FAC0F2D08247F6FE70B8F1020FC9
:101DC80043F822002CD0D9F808000844D0ED007A56
:101DD80066EEA77AF4EEC77AF1EE10FA37D9F4EE88
:101DE800C67AF1EE10FAC0F2E38247F6FE7BD9F824
:101DF8000C004AF822B00144D1ED007A66EEA77AC9
:101E0800F4EEC77AF1EE10FA1FD9F4EEC67AF1EEC5
:101E180010FAC0F2C58247F6FE71B86940F8221080
:101E2800023294427FF6A1AD51080EEB8100890081
:101E3800D0ED007A66EEA77AF4EEC77AF1EE10FAE2
:101E48009FD8B346A5E73046B8E73146E5E7B3463D
:101E5800CDE7002C00F0F981FA69D8F82030022A81
:101E680000F0FA8103EB8E0ADBF80830C7F800B0FF
:101E780006F1040CFB604FEA8E030AF10402DFED61
:101E8800715A7B60DBF80C309346D7F818E0BB60DA
:101E98000023C7F81890D7F810903D6156F8231022
:101EA8005A0898ED0B5A07EE901A5CF8231009EBC4
:101EB8008200B8EEE76A07EE901A5AF823100EEB84
:101EC8008205F8EEE76A07EE901A0BEB830126EE1F
:101ED800256A0233B8EEE77AD1ED007A66EEA56A94
:101EE800F968F8EEE77A9C4227EE257A01EB820141
:101EF80026EE056A66EE856A27EE057A67EEA57A0C
:101F080085ED006AC0ED006A81ED007A98ED0B7AE4
:101F1800B86867EE877A00EB8202C2ED007ABDD816
:101F2800D7F800B0D7F818903D6958466208494676
:101F38007B699847D8F8283079680022D8ED046A78
:101F480019442B1DD9F800C08B460431D9F80480F8
:101F5800C7F814B09FED3F7AD7F81CB0DFF8ECE073
:101F68009FED366A384EB961FB6150E0F4EEC67AEF
:101F7800F1EE10FAC0F20682304608EB010A45F885
:101F88002200DAED007A66EEA77AF4EEC77AF1EE6F
:101F980010FA4BD9F4EEC67AF1EE10FAC0F2F981D4
:101FA8003046FB69BBF1020F43F822002BD0D9F869
:101FB80008000844D0ED007A66EEA77AF4EEC77AF6
:101FC800F1EE10FA36D9F4EEC67AF1EE10FAC0F254
:101FD800D2813046D9F80CA07B69514443F82200DD
:101FE800D1ED007A66EEA77AF4EEC77AF1EE10FA30
:101FF8001ED9F4EEC67AF1EE10FAC0F2B581314678
:10200800BB6943F82210023294427FF6AEAC510805
:102018000CEB81008900D0ED007A66EEA77AF4EE29
:10202800C77AF1EE10FAA1D87046A6E77046B8E76D
:102038007146E5E77046CDE70280FFFF04FF7F3F6A
:1020480000FEFF46000000300082FF7F007E008017
:102058000000003404FF7FBF002C00F0F680D8F8A1
:1020680020304FEA8E02BD60002103EB8E0E06F190
:10207800040C1FED096A0EF104003D69D7F818A099
:10208800FA60C7F8189056F821204FEA51095CF811
:10209800213082F40002D8ED0B6A83F40003A2F524
:1020A8000002A3F5000307EE102A05EB890207EEEC
:1020B800903A0AEB8903B8EEC77A4FEA8909F8EE35
:1020C800E77A27EE067A67EE867A27EE267A67EEB3
:1020D800A67A83ED007AFB69C2ED007A022B27D03D
:1020E8005EF8212050F8213082F4000283F40003C6
:1020F800A2F50002A3F5000307EE902ADBF80820FA
:10210800B8EEE77A07EE903A4A44DBF80C30F8EE7E
:10211800E77A27EE067A4B4467EE867A27EE267A28
:1021280082ED007A98ED0B7A67EE877AC3ED007A34
:1021380002318C42A7D8D7F81890584662087B69B4
:102148004946BD689847D8F82830F9680022D8ED84
:10215800046A19442B1DD9F800C08B460431D9F8FC
:102168000480C7F814B01FED457AD7F81CB0DFF823
:10217800C8E29FEDAD6AAD4EB961FB6150E0F4EE87
:10218800C67AF1EE10FAC0F2C280304608EB010AB6
:1021980045F82200DAED007A66EEA77AF4EEC77AFF
:1021A800F1EE10FA4BD9F4EEC67AF1EE10FAC0F25D
:1021B800BC803046FB69BBF1020F43F822002BD0EC
:1021C800D9F808000844D0ED007A66EEA77AF4EE54
:1021D800C77AF1EE10FA36D9F4EEC67AF1EE10FAB3
:1021E800C0F2AA803046D9F80CA07B69514443F864
:1021F8002200D1ED007A66EEA77AF4EEC77AF1EE06
:1022080010FA1ED9F4EEC67AF1EE10FAC0F2868002
:102218003146BB6943F82210023294427FF6A5ABDF
:1022280051080CEB81008900D0ED007A66EEA77AA0
:10223800F4EEC77AF1EE10FAA1D87046A6E7704618
:10224800B8E77146E5E77046CDE722464946584665
:102258007B699847FFF789BB98ED0B6A002306F165
:10226800040CDFED736AB869D7F810A006EB830297
:102278000CEB830192ED007A5A08D1ED007A023313
:10228800B8EEC77A00EB8201F8EEE77A0AEB820231
:102298009C4227EE267A67EEA67A27EE067A67EE44
:1022A800867A81ED007AC2ED007ADFD84FEA8E0394
:1022B8007B603AE698ED0B6A06F1040CDFED5D6A87
:1022C800B869D7F810A036F922303CF9221007EE89
:1022D800103A530807EE901A0232B8EEC77A00EBAC
:1022E8008301F8EEE77A0AEB8303944227EE267A15
:1022F80067EEA67A27EE067A67EE867A81ED007A8F
:10230800C3ED007ADFD84FEA8E037B6019E5F0EE63
:10231800675AFEEEE45A15EE900A37E7F0EE675A70
:10232800FEEEE45A15EE901A73E7F0EE675AFEEEE9
:10233800E45A15EE900A3DE7F0EE675AFEEEE45ACD
:1023480015EE900A4FE767EEA57AFDEEE77A17EEED
:10235800900A0FFA80FB1CE567EEA57AFDEEE77A96
:1023680017EE900A00B229E5F0EE675AFEEEE05A41
:1023780015EE901A44E6F0EE675AFEEEE05A15EEB6
:10238800900A27E6F0EE675AFEEEE05A15EE900A3C
:10239800F3E5F0EE675AFEEEE05A15EE900A00E615
:1023A80067EEA57AFDEEE77A17EE901A09B234E5E2
:1023B80067EEA57AFDEEE77A17EE900A0FFA80FB32
:1023C80015E5F0EE675AFEEEE45A15EE902AFFF78F
:1023D800FEBB67EEA57AFDEEE77A17EE902A12B2F9
:1023E800FFF70ABBF0EE675AFEEEE45A15EE902AA4
:1023F800FFF7DBBBF0EE675AFEEEE05A15EE902AC7
:10240800FFF772BBF0EE675AFEEEE05A15EE902A1F
:10241800FFF757BB67EEA57AFDEEE77A17EE902A2D
:1024280012B2FFF7FDBA00BF04FF7F3F82FF7F00B3
:1024380000000030000000387E0080FF70B5164CA8
:10244800154684B0046004F1080601AB07C986E8A4
:102458000700D4ED047AF5EEC07A83E80700F1EEC0
:1024680010FA15DDF7EE006A86EEA77A84ED0B7A8E
:1024780075B1204640F8145F01F082F90346074A17
:1024880000201969064BE160E261636204B070BD27
:10249800012004B070BD00BFFCAF0624002000304E
:1024A8000000003000680830704700BF0068143032
:1024B80001F0C6B970B5046882B00D46A3694BB186
:1024C800A3680026A26A04F11800216A9B000096FE
:1024D80001F058F9A36804F11400064E626A9B00E3
:1024E800E169009601F04EF90020C4E9005002B0FD
:1024F80070BD00BF31180008024B0022C3E9052255
:10250800704700BFFCAF06248378022B30B5044621
:102518008FB037D0032B33D0012B31D000230A934F
:10252800E378012B2AD0022B28D000230B93002319
:1025380020460C9302F01CFD0546204602F020FDC3
:1025480023780990082B13D8DFE803F01F32455889
:102558006B7E91A40500594BD3F8E02042F48072B9
:10256800C3F8E020D3F8E03003F480730893089BA5
:10257800284609A903F0E6FE0FB030BD0B93D6E755
:102588000A93CDE711230A93CAE74C4B284609A9B9
:10259800D3F8E02042F00102C3F8E020D3F8E0309D
:1025A80003F001030093009B03F0CCFE0FB030BD95
:1025B800424B284609A9D3F8E02042F00202C3F8AA
:1025C800E020D3F8E03003F002030193019B03F00D
:1025D800B9FE0FB030BD394B284609A9D3F8E02021
:1025E80042F00402C3F8E020D3F8E03003F004031B
:1025F8000293029B03F0A6FE0FB030BD2F4B284676
:1026080009A9D3F8E02042F00802C3F8E020D3F883
:10261800E03003F008030393039B03F093FE0FB02D
:1026280030BD264B284609A9D3F8E02042F0100215
:10263800C3F8E020D3F8E03003F010030493049BC0
:1026480003F080FE0FB030BD1C4B284609A9D3F813
:10265800E02042F02002C3F8E020D3F8E03003F095
:1026680020030593059B03F06DFE0FB030BD134B9F
:10267800284609A9D3F8E02042F04002C3F8E02038
:10268800D3F8E03003F040030693069B03F05AFEAC
:102698000FB030BD094B284609A9D3F8E02042F015
:1026A8008002C3F8E020D3F8E03003F080030793FA
:1026B800079B03F047FE0FB030BD00BF004402582F
:1026C80038B5054602F054FC0446284602F058FC8A
:1026D80001462046BDE8384004F026B870B50646E5
:1026E8000D4602F045FC0446304602F049FC2A1E1D
:1026F8000146204618BF0122BDE8704004F01AB810
:1027080070B5122286B00023CDE902230268049333
:10271800032A01D804230593061D841D304602F0C0
:1027280027FC0546304602F02BFC034601A9284643
:10273800019303F007FE204602F01AFC03462046E8
:102748001C4602F01DFC01A903462046019303F034
:10275800F9FD06B070BD00BF634A0368934210B527
:102768008CB028D0614A934258D0614A934200F015
:102778009480604A934201D00CB010BD5E4C5F4813
:10278800D4F8E03043F00203C4F8E030D4F8E03085
:1027980003F002030A930A9BFFF7B2FFD4F8F43060
:1027A80043F08003C4F8F430D4F8F43003F0800325
:1027B8000B930B9BE0E7504C5148D4F8E03043F0C2
:1027C8000203C4F8E030D4F8E03003F002030193C8
:1027D800019BFFF795FFD4F8E83000221F2043F44F
:1027E80000131146C4F8E830D4F8E83003F40013B5
:1027F8000293029BD4F8D83043F00103C4F8D830D0
:10280800D4F8D83003F001030393039B02F0FEFCD5
:102818001F200CB0BDE8104002F032BD364C3948DC
:10282800D4F8E03043F08003C4F8E030D4F8E03066
:1028380003F080030493049BD4F8E03043F00203D0
:10284800C4F8E030D4F8E03003F002030593059BA8
:10285800FFF756FFD4F8E8300022212043F4800324
:102868001146C4F8E830D4F8E83003F4800306933E
:10287800069BD4F8D83043F00103C4F8D830D4F814
:10288800D83003F001030793079B02F0BFFC212017
:102898000CB0BDE8104002F0F3BC1B48FFF730FF56
:1028A800154B00224820D3F8E840114644F40004B0
:1028B800C3F8E840D3F8E84004F400040894089CFE
:1028C800D3F8D84044F00104C3F8D840D3F8D8303E
:1028D80003F001030993099B02F098FC48200CB00F
:1028E800BDE8104002F0CCBC005400400058004045
:1028F800005C0040001C005800440258B8B206248E
:1029080030B0062408B10624E0B106242DE9F043CE
:1029180087B000244FF010081D4DEC460294049433
:102928006E46ADF8084005F1180E059405F130071C
:1029380003944FF0FF09CDE90044ADF80080BCE8EE
:102948000F000FC59CE80300124BB4460094029494
:10295800ADF80080ADF8084083F8009085E80300E2
:102968000FCEAEE80F0096E8030000940294ADF88D
:102978000080ADF808408EE80300BCE80F000FC7E0
:102988009CE8030087E8030007B0BDE8F08300BFB8
:10299800040000242CB0062410B5EFF3108472B69E
:1029A800084B1A78120602D504B962B610BD187819
:1029B800D822054B40B202FB0030143003F062F914
:1029C800F2E700BF2CB0062430B00624014804F01A
:1029D8004BBD00BFBCB00624014804F045BD00BF94
:1029E80094B10624014804F03FBD00BF6CB2062430
:1029F8002DE9F0430C68D8253F4F85B005FB04F559
:102A0800032C07EB0503036040DCCB680E46012B63
:102A18003CD84DD04FF0D808B646DFF8FC9008FBFC
:102A28000478BEE80F00C446ACE80F00DEF800E00A
:102A380099E80F00CCF800E00DF1100ED8F808C0A6
:102A48000EE90F000EEB8403BCF1010F53F8103CA4
:102A5800C8F88C3031D0BCF1020F42D0BCF1000F65
:102A680035D0327CD82301218C3503FB0474002334
:102A78003D448A40C4F8AC302846C4E92521C4E95D
:102A88002733C4E9293304F0DFFA18B1012005B06F
:102A9800BDE8F0830146284604F0F2FC0028F5D191
:102AA8000146284604F018FD003818BF0120EEE75B
:102AB8000B7C103B672BADD9E8E702F0D5F80F4B3C
:102AC80098420CBF0E4B0F4BC8F89030C9E702F084
:102AD800CBF80A4B98420CBF0B4B0C4BC8F8903004
:102AE800BFE702F0C1F8054B98420CBF084B094BF1
:102AF800C8F89030B5E700BF30B00624000E2707AD
:102B08002D0FB0303211D0205F4390608A62E030E0
:102B1800200BA0101A098010181A01082DE9F0419D
:102B2800066882B00F461446984606F18C0528467A
:102B380004F0A2FC2028FAD1F26872B9089B790047
:102B480022462846009389B2434604F0D1FA003859
:102B580018BF012002B0BDE8F08142462146284650
:102B6800089B04F09FFBF2E7044B10221A7483F8C9
:102B7800E82083F8C02183F89822704730B00624F3
:102B8800F0B5002395B04FF48071062204460F93E8
:102B98000C9106920B931393CDE90D33CDE91133C4
:102BA80002F064F807282BD004F1100541F28832AE
:102BB80006A9284605F0D6FA28B10123184684F854
:102BC8005C3015B0F0BD05230226022710220693BB
:102BD800012328464FF0807506A90F95CDE90067B7
:102BE80000264FF48007CDE9022341F288336A4674
:102BF800CDE9046705F022FC0028DED115B0F0BD50
:102C08000323012084F85C3015B0F0BD2DE9F043B2
:102C18000023A5B04FF480764FF08075012204465A
:102C2800ADF806300D9315930E96CDE90F33CDE927
:102C38001333CDE9115200294AD0F02300F11005D1
:102C480008AEADF80630C023314641F28832284636
:102C5800089305F087FA30B10123184684F85C30F0
:102C680025B0BDE8F08341F288320DF1060128460F
:102C780005F0E2FA03460028EED14FF480720526EB
:102C88004FF080711D931E934FF000081B934FF077
:102C9800010923934FF480071C92102216960026F0
:102CA8001F91284616A9CDE921330123CDE9042334
:102CB80041F2883302AACDE90289CDE9066705F019
:102CC800BDFB0028CCD00122104684F85C20C7E761
:102CD80000F1100508AE612341F2883228463146DA
:102CE800089305F03FFA0028B6D141F288320DF179
:102CF8000601284605F01EFB0028ADD1BDF80630B8
:102D0800204623F0780343F04003ADF80630FFF780
:102D180037FF002897D09FE72DE9F04F0023ABB08D
:102D28004FF48075012606224FF0807A04468DF80C
:102D3800073013931B932593219329931495229578
:102D48000E961C92CDE91533CDE91933CDE923331D
:102D5800CDE92733CDE917A601F088FF072808D069
:102D680004F1100741F288321CA9384605F0FAF937
:102D780028B1012084F85C002BB0BDE8F08F4FF03B
:102D880002084FF002094FF0050B08AA41F28833F8
:102D98001CA93846CDF894A0CDF870B0CDE90889C3
:102DA8004FF010084FF00109CDE90A894FF00008EB
:102DB8004FF48009CDE90C8905F040FB0028D8D1F3
:102DC80041F2883238460EA905F0CCF90028D0D156
:102DD800402341F288320DF1070138468DF807305B
:102DE80005F02AFA0028C4D14FF010084FF0010965
:102DF8000EA941F2883302AA3846CDF838B0CDF88A
:102E08005CA0CDE904894FF000084FF48009CDE9B2
:102E180006894FF040084FF04009CDE9028905F0D6
:102E28000DFB84460028A4D1CDF870B04FF0010BFB
:102E3800CDF894A04FF0100A4FF000084FF00109A8
:102E480008AA1CA9384641F288332295CDF884C0D7
:102E5800CDF8A4C0CDE90AAB4FF0000A4FF4800BBF
:102E6800CDE923CCCDE927CCCDE90CABCDE9088958
:102E780005F0E4FA00283FF47FAF304684F85C6040
:102E88007AE700BF2DE9F04F684CA3B00E46046006
:102E980001F0ECFE072800F0C08030682546716814
:102EA800B26807C5B38925F8043B2846277B94F800
:102EB8000D8005F039F90346E0B9012F4FF00106FE
:102EC8005B4914BF4FF480124FF40002E061A66121
:102ED800C4E9041692FAA2F2B2FA82F24FF48079A7
:102EE800E0622846013A2363C4E9082905F0B0F8EE
:102EF800034638B10120034684F85C00184623B025
:102F0800BDE8F08F4FF0660C41F28832284606A9DA
:102F1800CDF830900F930B931393CDF818C0CDE9EB
:102F28000D33CDE9113305F01DF90028E2D19923BD
:102F380041F2883206A92846069305F013F90028BD
:102F4800D8D14FF0100A4FF0010B002201234FF0A7
:102F5800050E4FF0807CCDF868904FF0000919906D
:102F680014A92190CDF850E0CDF874C0CDE902AB9A
:102F78004FF4800ACDE90023CDE91B00CDE91F00FD
:102F880041F288336A462846CDE9049A05F056FA94
:102F98000028AFD139462046FFF738FE0028A9D1CE
:102FA8002046FFF7B9FE03460028A3D1B8F1000F69
:102FB800A4D14FF0A0084FF400594FF0000A4FF089
:102FC800060B4FF0EB0C4FF0805706AA14A92846C1
:102FD800CDF850C02197CDE916894FF480784FF489
:102FE8004069CDE918ABCDE91A894FF4404A4FF052
:102FF800407B4FF000084FF00009CDE91F33CDE9C1
:103008001CABCDE9068905F08DFA034600283FF48C
:1030180075AF334684F85C6070E7012303221846D5
:1030280084F85C2023B0BDE8F08F00BF90B306247D
:10303800005000522DE9F04F8FB0414B0024026838
:1030480000AF9A427C63C7E90944C7E90B4403D03F
:103058003C37BD46BDE8F08F3A4B4FF002093A4D78
:1030680040F60921D3F8D420EB467D6007F11C0611
:1030780042F48042354807F1220A4FF00308C3F8AA
:10308800D420D3F8D42002F48042BA60BA68D3F8C6
:10309800E02042F04002C3F8E020D3F8E02002F03C
:1030A8004002FA60FA68D3F8E02042F02002C3F840
:1030B800E020D3F8E02002F020023A613A69D3F820
:1030C800E02042F01002C3F8E020D3F8E02002F03C
:1030D80010027A617A69D3F8E02042F00202C3F85C
:1030E800E020D3F8E030F86103EA09033984BB61D2
:1030F800BB697B6853F8040F7B6001F039FF7B687C
:103108000546186801F03CFF16F8013B024607F136
:10311800240128467B63C7E90929C7E90B4803F05E
:1031280011F95645E5D100225C20114602F06EF8EF
:103138005C2002F0A5F83C37DD46BD46BDE8F08FBF
:103148000050005200440258ECB306240A0A090948
:10315800114B02689A4200D07047104A70B5D2F8F5
:10316800D4300F4C23F4804304F11806C2F8D4304D
:1031780054F8040F01F0FCFE0546206801F000FF3A
:103188000146284603F002FAB442F1D15C20BDE8BA
:10319800704002F083B800BF00500052004402584B
:1031A800ECB30624014805F045BA00BFA0B30624D5
:1031B800084B30B4981D9D1C1C1D03F1080103F138
:1031C8000A02C3E91835C3E91A40C3E91C1230BC26
:1031D800704700BF90B30624F8B5036871B9026A56
:1031E80000F1280500F5AC74012A0CBF002240222A
:1031F8008BBB1D495723C0F858110DE0426A00F1F6
:10320800C00500F5E874012A0CBF00224022EBB18A
:1032180016495A23C0F8D01100214FF480504FF4BA
:1032280080674FF4804663604FF40033A2604FF428
:103238008072E16061622362C4E90470C4E90662D5
:10324800204602F08FF958B1FFBEFEE7084958231F
:10325800C0F8D011E0E707495923C0F85811DBE757
:10326800C5E92044A563F8BD100002407000024083
:1032780028000240580002402DE9F043831D05460E
:103288008BB0041D05F10A01083005F10C02059305
:10329800AB69CDE90640CDE90812002B3DD0EB69BA
:1032A800B3FA83F84FEA58180222012305AE0AAF91
:1032B8004FF006090192CDE9023356F8044B2B79F9
:1032C8002278934216D02B68F3B1012B02D1F2B1C8
:1032D8000A230493204601F053FE03462046009338
:1032E80001F046FE694603F02DF8BE42E5D10BB069
:1032F800BDE8F083697963789942E4D1B8F1000FA9
:10330800F3D02B68002BE0D1CDF81090E2E763787A
:10331800022B14BF0A230823DBE74FF00108C3E799
:10332800534A0368934230B505468BB055D02032D6
:10333800934252D04F4A934204D02032934201D054
:103348000BB030BD4C4C4D48D4F8E03043F001038D
:10335800C4F8E030D4F8E03003F001030593059B8E
:10336800D4F8E03043F00803C4F8E030D4F8E03093
:1033780003F008030693069BD4F8E03043F04003BB
:10338800C4F8E030D4F8E03003F040030793079B1B
:10339800D4F8F03043F40003C4F8F030D4F8F03037
:1033A80003F400030893089BFFF766FFD4F8D830AE
:1033B800296843F001032F4A3048C4F8D830891AE5
:1033C800D4F8D83018BF012103F001030993099BF1
:1033D8000BB0BDE83040FFF7FFBE274C2848D4F8B3
:1033E800E03043F00103C4F8E030D4F8E03003F0F3
:1033F80001030093009BD4F8E03043F01003C4F8B5
:10340800E030D4F8E03003F010030193019BD4F8C6
:10341800E03043F04003C4F8E030D4F8E03003F083
:1034280040030293029BD4F8F03043F48003C4F8BD
:10343800F030D4F8F03003F480030393039BFFF7D4
:103448001BFFD4F8D830296843F00103084A0C4818
:10345800C4F8D830891AD4F8D83018BF012103F03D
:1034680001030493049B0BB0BDE83040FFF7B4BEE2
:1034780004580140045C01400044025864B6062424
:1034880008B40624014802F0FDBB00BF60B506245D
:10349800014802F0F7BB00BFD8B50624014802F086
:1034A800F1BB00BFBCB70624014802F0EBBB00BF6C
:1034B80034B806241A4A0368934210B40BD0203259
:1034C800934208D0174A934216D02032934213D021
:1034D8005DF8044B7047144B0022D3F85442C3F8EC
:1034E8005822002CF4D0D3F84802D3E9931223468B
:1034F8005DF8044B520818470B4B0022D3F8B04430
:10350800C3F8B424002CE3D0D3F8AC24D3F8A8141F
:10351800D3F8A404520823465DF8044B184700BFAB
:1035280004580140045C014008B40624184A0368A2
:10353800934210B40BD02032934208D0154A9342DC
:1035480017D02032934214D05DF8044B7047124BC9
:10355800D3E994245208C3F85822002CF4D0D3E9B4
:103568009201234601EB820100EB82005DF8044BD7
:103578001847094BD3F8AC24D3F8B0445208C3F821
:10358800B424002CE0D0D3F8A814D3F8A404E8E7B6
:1035980004580140045C014008B4062400000000FF
:1035A8002DE9F04F0C684FF41778DFF8D09185B00B
:1035B80008FB04F8012C09EB080CC0F800C000F364
:1035C80097804FF0000A0E460F466546CCF850A289
:1035D800CCE992AA0FCE0FC50FCE0FC563A3D3E9CE
:1035E800002364A1D1E90001CDE9022304AB03EB78
:1035F8008403CDE9000153F8102C53F8083C96E8F1
:103608000300CCF82820CCF8C0303B6985E80300DB
:10361800042B0CD8DFE803F0707A848E03004FF493
:1036280017734F4A03FB04939A64C3F8E020BA69FE
:10363800002A43D03A6A4FF417730121002A03FB8A
:1036480004930CBF02220322C3E90B21FA69002A62
:1036580041D1796A4FF41773003903FB049318BFFB
:103668000121C3E931127B69022B05D83D493E4A45
:1036780011F803A052F823B04FF41772002508F18F
:103688002800022302FB04945946484452466564C4
:103698006563E565C4F8DC50C4F8CC50C4F8F45050
:1036A800C4E90F55C4E91555C4E93555C4E93B5576
:1036B80007F086F8002847D0FFBEFEE7396A4FF4C6
:1036C8001773003903FB049318BF0121C3E90B12D8
:1036D800FA69002ABDD07A6A4FF417730121002ACB
:1036E80003FB04930CBF02220322C3E93121BAE78A
:1036F800012005B0BDE8F08F4FF417734FF4FA526C
:1037080003FB04939A64C3F8E02090E74FF417731F
:103718004FF47A5203FB04939A64C3F8E02086E7D7
:103728004FF417734FF4FA4203FB04939A64C3F8F7
:10373800E0207CE74FF417734BF6803203FB0493C9
:103748009A64C3F8E02072E708F1C000524659466F
:103758000223484407F034F80028CAD0FFBEFEE729
:1037680000770100901A0108941A010824580140B2
:10377800245C014004580140045C014008B406245C
:103788000068704770B50468154682B00E46A26995
:103798000698012AC4F84812C4F85402C4E993539D
:1037A80026D0626A012A9AB211D0294604F1C000D3
:1037B800019207F0C7F8236A019A012B10D0294615
:1037C80004F1280007F0BEF8002002B070BD04F133
:1037D800C000019207F048F9236A019A012BEED143
:1037E800314604F1280007F03FF9002002B070BD0F
:1037F800226A012A9AB211D0294604F128000192BE
:1038080007F0A0F8636A019A012B10D0294604F149
:10381800C00007F097F8002002B070BD04F128003E
:10382800019207F021F9636A019A012BEED1314622
:1038380004F1C00007F018F9002002B070BD00BF05
:1038480003681B69042B05D8044A02EB830393ED34
:10385800000A70479FED020A704700BFA01A0108CE
:1038680000803B470368D3F858027047F0B502223E
:1038780087B00023D0F8241204464D000493CDE904
:10388800022390F820220B2A23D194F822220B2A13
:1038980002D1002007B0F0BD6B1C4849484851F8D8
:1038A800233001781D7846788D4294F8237267D0CA
:1038B800AA4276D0D878DD1C81426DD0824278D079
:1038C80098799D1D884270D0824232D0012007B07D
:1038D800F0BD3A4B3A4853F8253001781E784778BE
:1038E800B14294F821C23DD0B24240D0D878DE1C13
:1038F800814240D082424BD098799E1D884243D065
:103908008242E3D1DB796345E0D1334604F508769A
:103918009B783046059301F02BFB034630461E4644
:1039280001F02EFB034601A93046019302F00AFD7F
:10393800ABE7DB79BB42C9D12B4604F222249B7842
:103948002046059301F014FB034620461C4601F06F
:1039580017FB034601A92046019302F0F3FC00205F
:1039680007B0F0BD5878B842C0D0B242BED158783E
:103978006045BBD1CAE793F804E0BE45BAD1BBE7BE
:103988005878B04294D195E7D979B942B8D19DE732
:1039980018796045B0D1B8E793F804C0B4458DD123
:1039A8008EE75878B84285D1C7E7D979B1428BD12B
:1039B8008CE71879B84283D1BEE700BF68000024BD
:1039C80064000024826FD0F8083111684A682DE934
:1039D800F0439A1A5C1E0646D0F80C012240C1B08A
:1039E800191A1144B1FBF3F403FB1414A34248D38E
:1039F800D6F81051D5F80031D5F80401013BD5F8B7
:103A080004111B1ADBB2A34294BFCB180B19C5F8DB
:103A18000431D5F80431B3F5807F05D9D5F80431E0
:103A2800A3F58073C5F80431C6F80C21D5F8002138
:103A380004EB0208B8F5807F24D9C2F58077A9186D
:103A4800D2F5807223D1BC4201D0E21B23D15FFAA8
:103A580088F306F58C79C5F80031D6F81C022718CA
:103A6800B7F5807F8CBFC0F580752546CDB9AC42CF
:103A780001D0621B1BD1FFB2C6F81C7241B0BDE871
:103A8800F083FEE7A9182246002CE0D027466846B6
:103A98000DF0A4FFD7E729460DEB07000DF09EFFB8
:103AA800D5E748442A4669460DF098FFDFE70DEB55
:103AB8000501FFB248460DF091FFC6F81C7241B0EF
:103AC800BDE8F083F0B4234D8AB0066801AC0FCD91
:103AD8000FC40FCD2F68019DAE420FC4276022D0BE
:103AE800029B9E4226D0039B9E4225D0049B9E4269
:103AF80024D0059B9E4223D0069B9E4222D0079B42
:103B08009E4221D0089B9E4220D0099B9E421FD0F6
:103B18000020F369DB0602D40AB0F0BC70470AB093
:103B2800F0BCFFF74FBF00204FF40F720A4B02FBA7
:103B38000030EEE70120F7E70220F5E70320F3E77E
:103B48000420F1E70520EFE70620EDE70720EBE783
:103B58000820E9E7281A0108C0B80624F0B4244D63
:103B68008AB0064601AC0FCD0FC40FCD2F6835685B
:103B7800D6F88860019EB5420FC4276023D0029B07
:103B88009D4222D0039B9D4221D0049B9D4220D080
:103B9800059B9D421FD0069B9D421ED0079B9D42C0
:103BA8001DD0089B9D421CD0099B9D421BD1082318
:103BB80010494FF40F70002200FB031383F81421FF
:103BC8000AB0F0BC70470023F2E70123F0E70223B4
:103BD800EEE70323ECE70423EAE70523E8E70623F7
:103BE800E6E70723E4E7002383F81431FFDE00BF8C
:103BF800281A0108C0B806242DE9F0479E4D92B056
:103C0800064609AC0FCD0FC40FCD2F6835680FC419
:103C1800099B27609D427ED00A9B9D427DD00B9BCD
:103C28009D4200F022810C9B9D4200F01C810D9B5F
:103C38009D4200F016810E9B9D4200F010810F9B63
:103C48009D4200F00A81109B9D4200F00481119B67
:103C58009D4240F00C8108244FF40F75874F05FBF7
:103C680004F507EB050898F8220201F091F998F895
:103C7800200201F08DF9D8F82432082B13D8DFE898
:103C880003F04E5C6A788694A2B005007C4BD3F8AA
:103C9800F42042F00802C3F8F420D3F8F43003F01B
:103CA80008030893089B4046FFF7E0FD012811D060
:103CB8004FF40F78734A08FB04F857F8083007EBFD
:103CC8000804934208D01A6842F010021A6012B031
:103CD800BDE8F087FFBEFEE700236B4929228C353B
:103CE800C4F88C104FF480613D44C4F89830C4F88F
:103CF8009C102846C4E924234FF48072C4E9283371
:103D0800C4E92B33C4F8A82001F02CFC864600280F
:103D180075D0FFBEFEE700249EE701249CE7584BC0
:103D2800D3F8F02042F01002C3F8F020D3F8F030B6
:103D380003F010030093009BB5E7514BD3F8E8203C
:103D480042F40032C3F8E820D3F8E83003F4003333
:103D58000193019BA7E74A4BD3F8E82042F480225D
:103D6800C3F8E820D3F8E83003F480230293029BD9
:103D780099E7434BD3F8E82042F40022C3F8E8203F
:103D8800D3F8E83003F400230393039B8BE73C4B01
:103D9800D3F8E82042F48012C3F8E820D3F8E830DA
:103DA80003F480130493049B7DE7354BD3F8F0208C
:103DB80042F02002C3F8F020D3F8F03003F02003DB
:103DC8000593059B6FE72E4BD3F8E82042F080421D
:103DD800C3F8E820D3F8E83003F080430693069B45
:103DE80061E7274BD3F8E82042F00042C3F8E82007
:103DF800D3F8E83003F000430793079B53E7B56710
:103E080012A9D4F88CA009ADD4F82422DAF800302D
:103E1800DFF878C001EB4209C4F8C46023F0080653
:103E2800BCE80F00DCF800C0CAF800600FC5724695
:103E3800A5F800C0714639F9240C01F0E7F9D4F867
:103E4800243212AA02EB430333F9240C01F018FAC6
:103E580057F8083037E70724FEE60624FCE6052471
:103E6800FAE60424F8E60324F6E60224F4E600233E
:103E780093F82232FFDE00BF281A0108C0B80624D2
:103E88000044025800100140880002404C1A010802
:103E9800F0B5284F8BB0384607F00CF83C68E3695A
:103EA800DA0601D40BB0F0BD234E01AD0FCE0FC51D
:103EB8000FCE0FC5019B36689C422E6029D0029B0D
:103EC8009C4228D0039B9C4227D0049B9C4226D02E
:103ED800059B9C4225D0069B9C4224D0079B9C4274
:103EE80023D0089B9C4222D0099B9C420BD00020E7
:103EF800E369DB0603D4102323620BB0F0BDFFF7A0
:103F080061FD3C68F7E708204FF40F7303FB00706E
:103F1800EEE70020F8E70120F6E70220F4E70320A7
:103F2800F2E70420F0E70520EEE70620ECE707209B
:103F3800EAE700BFC0B80624281A0108F0B5294FDF
:103F48008BB007F50F7006F0B5FFD7F83C42E36970
:103F5800DA0601D40BB0F0BD234E01AD0FCE0FC56C
:103F68000FCE0FC5019B36689C422E602AD0029B5B
:103F78009C4229D0039B9C4228D0049B9C4227D07A
:103F8800059B9C4226D0069B9C4225D0079B9C42C1
:103F980024D0089B9C4223D0099B9C420CD0002033
:103FA800E369DB0603D4102323620BB0F0BDFFF7EF
:103FB80009FDD7F83C42F6E708204FF40F7303FBDE
:103FC8000070EDE70020F8E70120F6E70220F4E7AB
:103FD8000320F2E70420F0E70520EEE70620ECE7EF
:103FE8000720EAE7C0B80624281A0108F0B5294FC7
:103FF8008BB007F58F6006F05DFFD7F87844E3696A
:10400800DA0601D40BB0F0BD234E01AD0FCE0FC5BB
:104018000FCE0FC5019B36689C422E602AD0029BAA
:104028009C4229D0039B9C4228D0049B9C4227D0C9
:10403800059B9C4226D0069B9C4225D0079B9C4210
:1040480024D0089B9C4223D0099B9C420CD0002082
:10405800E369DB0603D4102323620BB0F0BDFFF73E
:10406800B1FCD7F87844F6E708204FF40F7303FB48
:104078000070EDE70020F8E70120F6E70220F4E7FA
:104088000320F2E70420F0E70520EEE70620ECE73E
:104098000720EAE7C0B80624281A0108F0B5294F16
:1040A8008BB007F2B46006F005FFD7F8B446E369B1
:1040B800DA0601D40BB0F0BD234E01AD0FCE0FC50B
:1040C8000FCE0FC5019B36689C422E602AD0029BFA
:1040D8009C4229D0039B9C4228D0049B9C4227D019
:1040E800059B9C4226D0069B9C4225D0079B9C4260
:1040F80024D0089B9C4223D0099B9C420CD00020D2
:10410800E369DB0603D4102323620BB0F0BDFFF78D
:1041180059FCD7F8B446F6E708204FF40F7303FBB1
:104128000070EDE70020F8E70120F6E70220F4E749
:104138000320F2E70420F0E70520EEE70620ECE78D
:104148000720EAE7C0B80624281A0108F0B5294F65
:104158008BB007F50F6006F0ADFED7F8F048E369BD
:10416800DA0601D40BB0F0BD234E01AD0FCE0FC55A
:104178000FCE0FC5019B36689C422E602AD0029B49
:104188009C4229D0039B9C4228D0049B9C4227D068
:10419800059B9C4226D0069B9C4225D0079B9C42AF
:1041A80024D0089B9C4223D0099B9C420CD0002021
:1041B800E369DB0603D4102323620BB0F0BDFFF7DD
:1041C80001FCD7F8F048F6E708204FF40F7303FB1B
:1041D8000070EDE70020F8E70120F6E70220F4E799
:1041E8000320F2E70420F0E70520EEE70620ECE7DD
:1041F8000720EAE7C0B80624281A0108F0B5294FB5
:104208008BB007F62C3006F055FED7F82C4BE36937
:10421800DA0601D40BB0F0BD234E01AD0FCE0FC5A9
:104228000FCE0FC5019B36689C422E602AD0029B98
:104238009C4229D0039B9C4228D0049B9C4227D0B7
:10424800059B9C4226D0069B9C4225D0079B9C42FE
:1042580024D0089B9C4223D0099B9C420CD0002070
:10426800E369DB0603D4102323620BB0F0BDFFF72C
:10427800A9FBD7F82C4BF6E708204FF40F7303FB84
:104288000070EDE70020F8E70120F6E70220F4E7E8
:104298000320F2E70420F0E70520EEE70620ECE72C
:1042A8000720EAE7C0B80624281A0108F0B5294F04
:1042B8008BB007F6685006F0FDFDD7F8684DE36946
:1042C800DA0601D40BB0F0BD234E01AD0FCE0FC5F9
:1042D8000FCE0FC5019B36689C422E602AD0029BE8
:1042E8009C4229D0039B9C4228D0049B9C4227D007
:1042F800059B9C4226D0069B9C4225D0079B9C424E
:1043080024D0089B9C4223D0099B9C420CD00020BF
:10431800E369DB0603D4102323620BB0F0BDFFF77B
:1043280051FBD7F8684DF6E708204FF40F7303FBED
:104338000070EDE70020F8E70120F6E70220F4E737
:104348000320F2E70420F0E70520EEE70620ECE77B
:104358000720EAE7C0B80624281A0108F0B5294F53
:104368008BB007F6A47006F0A5FDD7F8A44FE36953
:10437800DA0601D40BB0F0BD234E01AD0FCE0FC548
:104388000FCE0FC5019B36689C422E602AD0029B37
:104398009C4229D0039B9C4228D0049B9C4227D056
:1043A800059B9C4226D0069B9C4225D0079B9C429D
:1043B80024D0089B9C4223D0099B9C420CD000200F
:1043C800E369DB0603D4102323620BB0F0BDFFF7CB
:1043D800F9FAD7F8A44FF6E708204FF40F7303FB58
:1043E8000070EDE70020F8E70120F6E70220F4E787
:1043F8000320F2E70420F0E70520EEE70620ECE7CB
:104408000720EAE7C0B80624281A0108F0B5284FA3
:104418008BB0384606F04EFD3C68E369DA0601D4F5
:104428000BB0F0BD234E01AD0FCE0FC50FCE0FC59B
:10443800019B36689C422E602AD0029B9C4229D060
:10444800039B9C4228D0049B9C4227D0059B9C42FE
:1044580026D0069B9C4225D0079B9C4224D0089BD3
:104468009C4223D0099B9C420BD00020E369DB06C9
:1044780003D4102323620BB0F0BDFFF7A3FA3C6806
:10448800F7E708204FF40F720B4B02FB0030EDE703
:104498000020F7E70120F5E70220F3E70320F1E722
:1044A8000420EFE70520EDE70620EBE70720E9E722
:1044B800A0CA0624281A0108C0B80624014801F039
:1044C800E1BB00BF4CB90624D1F804C04FF40F7308
:1044D8002DE9F04703FB0CFADFF8F0900D4607468C
:1044E8000AEB09080E46BCF1080F08F508740FCD51
:1044F800C7F800800FC495E8070084E8070003D8D0
:10450800D8F82C32022B02D90120BDE8F087D8F860
:104518002822032AF8D8D8F830120229F4D8D8F873
:104528003442022CF0D825480131254F002550F897
:104538002C00890057F82370DFF894C0214B4AF803
:1045480009004046B6695CF8222053F82430C8F8C0
:104558001410C8F80460C8F80830C8F82850C8E92A
:104568000327C8E90655C8E9085508F09DF800284A
:10457800CAD10146404608F0EFF80028C4D10146E8
:10458800404608F03FF90028BED1404608F0C6F87A
:104598000028B9D10C4909EB0A034FF48074C1F81B
:1045A8000401C8F81011C1F80001C8F80841A3F8BF
:1045B8001401C8F81C02C8F81802A6E7B41A0108C2
:1045C800D81A0108F41A010800400030C0B80624BF
:1045D800E41A010810B50468B4F808212046D4F894
:1045E800101106F0B1FB20B194F8140180F001001D
:1045F80010BD012384F8143110BD00BF036893F87F
:1046080014017047034600201B68D3F81822C3F82A
:104618001C2270470268D2F81C32D2F818125B1AB2
:1046280013F0FF0FF7D0D2F81832D1180133DBB2EC
:1046380091F81801C2F81832704700BF0368D3F820
:104648001C02D3F81832C01AC0B270475D4B012261
:1046580000204FF4965141F2CC1CF0B441F2D0172F
:1046680041F2D81641F2DC1541F2084443F80C2017
:10467800D85141F218479A5141F20C46C3F8282202
:10468800C3F83422C3F86424C3F87024C3F8A026FE
:10469800C3F8AC26C3F8DC28C3F8E828C3F8182BFD
:1046A800C3F8242BC3F8542DC3F8602DC3F8902FFA
:1046B800C3F89C2FC3F82C02C3F86804C3F8A406F7
:1046C800C3F8E008C3F81C0BC3F8580DC3F8940FDF
:1046D800C3F83812C3F87414C3F8B016C3F8EC184A
:1046E800C3F8281BC3F8641DC3F8A01F595141F231
:1046F80014451A51344C9851266834485A514FEA97
:10470800164C2288D951A378314C3249E280237261
:10471800C280314C03723148314D324FA1F8032029
:104728004B71CA800B72A4F803202F496371E28091
:104738002372A0F803202D4C4371C28003722C48C9
:104748002E8085F802C0A5F803206B71A1F803201C
:104758004B71CA800B72FA8026493B72264FEA8059
:104768002B722680254DA4F803206371E280237202
:10477800068084F802C080F802C0214CA0F803200B
:104788004371C28003721F480E80A7F803207B7113
:10479800FA803B72A5F803206B71EA802B72A4F8AB
:1047A80003206371E280237281F802C0A1F803201C
:1047B8004B71CA800B72A0F803204371C280037248
:1047C800F0BC7047C0B8062464000024EC00002444
:1047D800F80000241001002404010024280100240A
:1047E80000CD0624D40000241C010024DCCC0624BF
:1047F800F4CC0624E8CC062434010024E00000248C
:10480800580000244C000024704700BF08B500F091
:10481800BFFCBDE8084000F0B9BD00BF064808B5B8
:1048280003680BB101F08AFF044803681BB1BDE8B7
:10483800084002F07BBE08BDB4E00624A4D80624D4
:10484800064808B503680BB101F078FF044803680F
:104858001BB1BDE8084002F069BE08BDB4E00624FB
:10486800A4D80624064808B503680BB101F066FF12
:10487800044803681BB1BDE8084002F057BE08BDF4
:10488800B4E00624A4D80624354BDA6A520063D56E
:104898009A6A9A6A9A6A9B6A180600D500BE304BD3
:1048A8009B6A990600D500BE2D4B9B6ADA0600D597
:1048B80000BE2B4B9B6A1B0700D500BE284B9B6A8A
:1048C800980700D500BE264B9B6AD90700D500BEC5
:1048D800234B9B6A1A0400D500BE214B9B6A9B049C
:1048E80000D500BE1E4B9B6AD80400D500BE1C4BE9
:1048F8009B6A190500D500BE194B9B6A5A0500D55D
:1049080000BE174B9B6A9B0500D500BE144B9B6AE3
:10491800D80500D500BE124B9B6A990100D500BE90
:104928000F4B9B6ADA0100D500BE0D4B9B6A1B0337
:1049380000D500BE0A4B9B6A580300D500BE084B41
:104948009B6A990300D500BE054B9B6ADA0300D524
:1049580000BE00BE00BEFEE7DB6A9B07FAD5F8E79B
:1049680000ED00E000F020BC00F024BC00000000D6
:104978002DE9F04FCFB004464C2200210AA80DF0D3
:104988003BF82022002102A80DF036F8BC220021B5
:104998001EA80DF031F8022003F042FA2368002225
:1049A800012B3DD0604B02250192C821DA6A22F022
:1049B8000102DA62DA6A03F5113302F001020192A8
:1049C8009A6942F440429A619B6903F44043019317
:1049D800019B564B9A699204FCD5554A022404203F
:1049E8004FF0010C936A21264FF4803723F003031C
:1049F80023439362052308221590189300230AA8DD
:104A08001691CDF840C0179419941A92CDE9134421
:104A1800CDE91B33CDE90A6703F014FFC0B1FEE707
:104A2800424B04250092F0219A6942F440429A616F
:104A38009A69A3F5113302F440420092DA6A42F00F
:104A48000102DA62DB6A03F001030093009BC0E70E
:104A58003F26032700220823294602A8CDE902673A
:104A6800CDE90423402640234FF480624027CDE956
:104A78000823CDE9066704F025FA034600B1FEE7EE
:104A8800802202260127002534924FF48072339445
:104A9800802443924FF480524FF00C084FF00809DD
:104AA8001EA8CDE93B334FF4805335934FF4803340
:104AB80046930623CDE92267CDE9244540F227161F
:104AC800102704242025CDE926234FF480620023F3
:104AD800CDE92867CDE92A45CDE92C230FF2400B13
:104AE800DBE900AB0026022700244FF480350022C2
:104AF8004FF44013CDE91EABCDE92089CDE92E67EF
:104B0800CDE93045CDE93E2304F03CFC00B1FEE799
:104B180003F0ACF94FB0BDE8F08F00BFAFF30080F1
:104B28000F130F030100000000040058004802584A
:104B380000440258F0B50C46054685B0D1E900019D
:104B480085E8030000F0F4FAA679A6B36D460AF0EA
:104B580061F9FDF7DBFE09F02DFD2379002B55D116
:104B680063799BB1BFF34F8FBFF36F8F3B4B00222D
:104B7800C3F85022BFF34F8FBFF36F8F5A6942F4C7
:104B880000325A61BFF34F8FBFF36F8F00220023AB
:104B98004FF0FF3600242946314802968DF80C4024
:104BA800CDE900230AF09CF82D480AF001F909F034
:104BB80035F905B0F0BD28466D46FFF7D9FE012747
:104BC80000F098FB4FF04053264A284601934FF4D3
:104BD8008073ADF80070CDE9022300F0ADFB40F220
:104BE800011119224FF0404328468DF801708DF8C5
:104BF8000D608DF80A60ADF80E108DF8082001934D
:104C080000F09AFB042000F085FBA0E7134800237E
:104C1800C0F88430BFF34F8FD0F8801043F6E07CA3
:104C2800C1F34E32C1F3C901520102EA0C060B4628
:104C380046EA8377013BC0F860725F1CF8D1203ADE
:104C480012F1200FF1D1BFF34F8F436943F4803342
:104C58004361BFF34F8FBFF36F8F81E700ED00E033
:104C68000CCD06240E00010304F05CBA1C4B9B68B3
:104C780003F17842B2F5003F25D3B3F5803F20D346
:104C880003F16042B2F5003F1FD303F15C42B2F575
:104C9800002F1CD303F17042B2F5902F19D303F102
:104CA8004842B2F5803F16D303F18042B2F1806FDB
:104CB80013D303F1E043B3F5000F2CBF08200720FE
:104CC800704701207047002070470220704703207A
:104CD800704704207047052070470620704700BFC2
:104CE80000ED00E003480023034A044903600CF088
:104CF80079B800BF0CCD0624000000241148000834
:104D080030B41F4C00221F4B82B0D4F888101E48C4
:104D180041F470011D4DC4F888101C681C4944F00A
:104D280001041C601A611C68204018609A61DA61ED
:104D38001A629A62DA621A635A639A63DA631A64C5
:104D48005A64186820F4802018601A66D3F8DC20AA
:104D580042F06042C3F8DC20D3F8DC300193019BB9
:104D68002B681940B1F1005F02D20A4B01221A6088
:104D7800034B4FF000629A6002B030BC704700BF2E
:104D880000ED00E0004402587FEDF6EA0010005CF8
:104D98000000FFFF0881005100F57171D0F804048C
:104DA80008F02EBCC1EBC10300EB8303D0F8040468
:104DB800D3F8082208F052BCC1EBC10300EB83030F
:104DC800D0F804049A6C08F087BC00BFD0F804043B
:104DD80008F01CBDC16810B5044619B1022900D0FD
:104DE800FEE70121D4F8040408F0FAFCD4F804041E
:104DF800BDE8104008F0CCBC10B50446D0F8040457
:104E080008F0F2FC2268D2F8003E43F00103C2F831
:104E1800003E236A23B1034A136943F00603136172
:104E280010BD00BF00ED00E0D0F8040408F0E6BCB7
:104E3800D0F8040408F0FABCD0F8040408F0F4BC74
:104E4800D0F8040408F0F4BCD0F8040408F0F2BC6C
:104E580010B51446D0F898021A46234602F0D8FE38
:104E6800032802D8024B185C10BD022010BD00BFF9
:104E7800101B0108D0F8980208B502F04FFF03286C
:104E880002D8024B185C08BD022008BD101B01089F
:104E9800D0F8980208B502F085FF032802D8024B23
:104EA800185C08BD022008BD101B01080A06D0F8CE
:104EB800983206D4C1EBC10103EB810191F8FE01E0
:104EC800704701F07F01C1EBC10103EB810191F84B
:104ED8003E007047D0F8980208B502F085FE032816
:104EE80002D8024B185C08BD022008BD101B01083F
:104EF800D0F8980208B502F0EDFE032802D8024B5C
:104F0800185C08BD022008BD101B0108D0F89802E3
:104F180008B502F0B7FE032802D8024B185C08BD9A
:104F2800022008BD101B0108D0F8C00208F030BFED
:104F3800D0F8C00208F044BFD0F8C00208F04CBF57
:104F4800704700BFD0F8C00208F032BFD0F8C002E6
:104F580008F032BFD0F8D00308B501F0B1FF03283C
:104F680002D8024B185C08BD022008BD141B0108BA
:104F7800024B027853F82200704700BF381B010823
:104F8800024B427833F81200704700BF181B010823
:104F98008CB00A2814D8DFE800F01523313F4D5BA8
:104FA8006977859306004D4BD3F8E02042F4806280
:104FB800C3F8E020D3F8E03003F480630B930B9B35
:104FC8000CB07047454BD3F8E02042F00102C3F81B
:104FD800E020D3F8E03003F001030193019BEFE7F1
:104FE8003E4BD3F8E02042F00202C3F8E020D3F8A9
:104FF800E03003F002030293029BE1E7374BD3F85A
:10500800E02042F00402C3F8E020D3F8E03003F0D7
:1050180004030393039BD3E7304BD3F8E02042F01B
:105028000802C3F8E020D3F8E03003F00803049343
:10503800049BC5E7294BD3F8E02042F01002C3F8DF
:10504800E020D3F8E03003F010030593059BB7E7A1
:10505800224BD3F8E02042F02002C3F8E020D3F836
:10506800E03003F020030693069BA9E71B4BD3F817
:10507800E02042F04002C3F8E020D3F8E03003F02B
:1050880040030793079B9BE7144BD3F8E02042F0BB
:105098008002C3F8E020D3F8E03003F080030893DF
:1050A800089B8DE70D4BD3F8E02042F48072C3F8DB
:1050B800E020D3F8E03003F480730993099B7FE77D
:1050C800064BD3F8E02042F40072C3F8E020D3F88E
:1050D800E03003F400730A930A9B71E70044025816
:1050E800704700BF0F4B1B780BB90120704710B5F4
:1050F80004464FF47A700C4AB0FBF3F31068B0FB27
:10510800F3F000F0DFF80F2C00D808B1012010BD33
:10511800002221464FF0FF3000F078F8034B0020C2
:105128001C6010BD48010024400100244C010024EB
:1051380070B5134C032000F055F8124E03F022FE10
:10514800A26911490346C2F30322104D0E208A5C5E
:1051580002F01F02D3403360A26902F00F028A5C9A
:1051680002F01F02D3402B60FFF7BCFF10B10124EF
:10517800204670BD0446FFF7B3FF204670BD00BF50
:105188000044025840010024001B01084401002487
:10519800034A044B11681B780B441360704700BF27
:1051A80010CD062448010024014B1868704700BF41
:1051B80010CD062438B50446FFF7F6FF0546631CF4
:1051C80002D0044B1B781C44FFF7EEFF431BA3429D
:1051D800FAD338BD48010024014B1868000C704709
:1051E8000010005C07490002074BCA6800F4E06041
:1051F80010B44FF6FF0422405DF8044B10430343FC
:10520800CB60704700ED00E00000FA05194BDB6841
:10521800C3F3022330B4C3F107051C1D042D28BFB6
:105228000425062C19D9033B4FF0FF349C4022EA91
:1052380004024FF0FF34002804FA05F421EA0401BF
:1052480001FA03F141EA02010ADB09010A4BC9B27A
:10525800034483F8001330BC704700221346E8E784
:1052680000F00F000901054BC9B20344197630BCA0
:10527800704700BF00ED00E000E100E0FCEC00E05A
:10528800002807DB00F01F0101234009024A8B4078
:1052980042F82030704700BF00E100E000280DDB35
:1052A8004309012200F01F000549203302FA00F0EB
:1052B80041F82300BFF34F8FBFF36F8F704700BFD4
:1052C80000E100E00138B0F1807F0DD2074B0022E9
:1052D800072130B4F025064C5860104684F8235056
:1052E8009A60196030BC70470120704710E000E0F8
:1052F80000ED00E0BFF35F8F044A00200449536AC1
:1053080023F4803353624860704700BF00ED00E02B
:1053180090ED00E0064A40F00100064B5860536AE1
:1053280043F480335362BFF34F8FBFF36F8F7047DF
:1053380000ED00E090ED00E0124A437893600178B8
:10534800E9B1436870B4D360C37A047B1B06857ADD
:10535800867B43EA0473447B0B43017A43EAC543E3
:10536800C57B43EA8443447A43EA464343EA054318
:1053780043EA042343EA410370BC13617047D160D8
:105388001161704790ED00E0704700BF08B5FFF766
:10539800FBFF08BD0268354B354930B4354C364DF6
:1053A800A24218BF9A4204F148040CBF012300230B
:1053B8008A4208BF43F001034831AA4208BF43F0BC
:1053C80001034835A24208BF43F0010348348A422A
:1053D80008BF43F0010301F56271AA4208BF43F018
:1053E800010305F56275A24208BF43F0010304F505
:1053F80062748A4208BF43F001034831AA4208BFD9
:1054080043F001034835A24208BF43F00103483482
:105418008A4208BF43F001034831AA4208BF43F05B
:105428000103A24208BF43F001038A4208BF43F0C8
:10543800010313B9114B9A4213D1D3B21049114C3D
:10544800103BA1FB03515F2B0F4BC1F3021103EA81
:105458000203615C88BF0433C1658365184630BCAC
:10546800704722F0FF038365F8E700BF1000024091
:10547800400002402800024058000240B8040240A0
:10548800ABAAAAAA681B010800FCFFFF0368294A07
:10549800294930B4294D2A4CAB4218BF934205F133
:1054A8003C050CBF01220022A34208BF42F00102C2
:1054B8003C348B4208BF42F001023C31AB4208BF8A
:1054C80042F00102A34208BF42F001028B4208BF2A
:1054D80042F0010212B91B4A934213D1DBB21A4DB2
:1054E8001A4A0121083B1A4CA5FB0353446602EBF8
:1054F8001312C3F30413920001FA03F302668366DE
:1055080030BC7047DAB21349134C1944103AA82931
:10551800A4FB02234FEA131300D808330F4A03F001
:105528001F0501210E4C1A44A94044669200816669
:105538000266E5E708540258445402581C540258BD
:105548003054025894540258CDCCCCCC0096001656
:1055580080580258F0FBFDBFABAAAAAA008200102F
:1055680080080240F8B50446FFF71EFE002C00F044
:10557800DC8023680546974A934249D01832934203
:1055880046D0303294489549834218BF934200F17F
:1055980048000CBF012200228B4208BF42F00102E2
:1055A8003031834208BF42F0010230308B4208BFDD
:1055B80042F0010201F55C71834208BF42F001022A
:1055C80000F55C708B4208BF42F001023031834223
:1055D80008BF42F0010230308B4208BF42F001029E
:1055E8003031834208BF42F0010230308B4208BF9D
:1055F80042F001023031834208BF42F001028B427F
:1056080008BF42F001021AB9754A934240F0FC8083
:105618000222002184F8352084F834101A6822F018
:1056280001021A6005E0FFF7BFFD431B052B57D8A1
:1056380023681A68D107F6D4D4E9022120690A43FD
:105648001F68D4E9051602430A436649D4E90705E9
:10565800324339400243606A2A43042841EA02017E
:1056680045D019605A6922F0070210435861204654
:10567800FFF790FEE26D3F2302F01F029340836024
:105688002046FFF703FFA368802B18D06368256EB8
:10569800DAB2013BD4E91910072B2A60486015D803
:1056A800501E072843D9626FD4E91B3100201860C7
:1056B800002001234A60606584F83530F8BD002376
:1056C800A16ED4E9180263600360516000230020D2
:1056D800C4E91B3363670123606584F83530F8BD7E
:1056E800202203230120626584F83530F8BDD4E90F
:1056F8000B50A26A284301431960586920F007003B
:10570800104340F00400002DB0D0002E45D1012AEE
:105718005AD032F00202A9D1EA01A7D501234022CA
:105728001846626584F83530F8BD0120F8BD216857
:105738002D4B2E4E2E4DB14218BF994206F1280628
:105748000CBF01230023A94208BF43F001032835F9
:10575800B14208BF43F001032836A94208BF43F00D
:1057680001032835B14208BF43F00103A94208BF2D
:1057780043F001033BB91F4B994204D01E4B1F490C
:1057880013449B0003E01E4B1E4913449B00012257
:105798008240C4E91B31626788E7B6F5005F04D030
:1057A800022ABBD9032AB7D060E7032A3FF65EAFC7
:1057B80001A151F822F000BF255700082157000821
:1057C80025570008D1570008B5F1C07F7FF44EAFC8
:1057D800A4E700BF100002404000024070000240F1
:1057E800B80402403F8010FE085402581C54025866
:1057F80030540258945402583F8200104009024025
:105808003F96001640590258334A344934488B426F
:1058180018BF934201F12801324D0CBF012200222A
:10582800834208BF42F001023C308B4208BF42F07D
:1058380001023C31AB4208BF42F00102834208BF7B
:1058480042F001028B4208BF42F0010212B9264A17
:1058580093423AD102220021244F84F83520A268CD
:1058680084F83410402A196807EA01072BD0802AE7
:105878000CBF4FF48041002122692046E668D20817
:105888006569DFF870C042EAD602A66942EAD50225
:10589800E56942EAD602164E42EAD5021E44256A56
:1058A80042EA1512ACFB06653A432D091143AD00D7
:1058B8001960E565FFF76EFDE26D012302F01F0236
:1058C80093404360DCE61021D6E740220323012001
:1058D800626584F83530F8BD085402581C540258E3
:1058E8003054025858540258945402580F00FEFF7E
:1058F800F8ABFDA7CDCCCCCC002800F0C1802DE9B9
:10590800F041054690F83400012800F0BB800120E2
:1059180095F83540844285F8340007D000224FF4CA
:10592800006385F834206B65BDE8F0812E68022796
:105938007D4C7E48DFF808C2864218BFA64200F1B7
:10594800300085F835704FF000070CBF01240024A3
:105958006F65664508BF44F001040CF1300C744FC4
:10596800864208BF44F001043030664508BF44F061
:1059780001040CF5627C864208BF44F0010400F57E
:105988006270BE4208BF44F001044837664508BF4C
:1059980044F001040CF1480C864208BF44F00104AD
:1059A8004830BE4208BF44F001044837664508BF86
:1059B80044F001040CF1480C864208BF44F001048D
:1059C800A0F58F60BE4208BF44F00104A7F58F67B9
:1059D800664508BF44F00104BE4218BF86426F6E98
:1059E8000CBF0120002004433068D5E91A8C20F050
:1059F80001003060D5F858E0C7F8048045D0BCF104
:105A0800000F02D0D5E91C074760EF6D3F20D5F89D
:105A1800088007F01F07B8F1400F00FA07F0CEF82A
:105A28000800306820F480203060736025D0B160B1
:105A3800F26033682A6C23F01E0343F016033360C8
:105A48001AB1336843F0080333602B6E1A68D20327
:105A580003D51A6842F480721A60BCF1000F05D0B1
:105A6800DCF8003043F48073CCF800303368002051
:105A780043F001033360BDE8F081B260F160D8E71C
:105A8800012070470220BDE8F081BCF1000F02D070
:105A9800D5E91C0747602748DFF8A880264F464508
:105AA80018BF864208F128080CBF01200020BE421A
:105AB80008BF40F001002837464508BF40F0010004
:105AC80008F12808BE4208BF40F0010028374645C3
